{
  "contractName": "Destructible",
  "abi": [
    {
      "constant": false,
      "inputs": [],
      "name": "renounceOwnership",
      "outputs": [],
      "payable": false,
      "stateMutability": "nonpayable",
      "type": "function"
    },
    {
      "constant": true,
      "inputs": [],
      "name": "owner",
      "outputs": [
        {
          "name": "",
          "type": "address"
        }
      ],
      "payable": false,
      "stateMutability": "view",
      "type": "function"
    },
    {
      "constant": true,
      "inputs": [],
      "name": "isOwner",
      "outputs": [
        {
          "name": "",
          "type": "bool"
        }
      ],
      "payable": false,
      "stateMutability": "view",
      "type": "function"
    },
    {
      "constant": false,
      "inputs": [
        {
          "name": "newOwner",
          "type": "address"
        }
      ],
      "name": "transferOwnership",
      "outputs": [],
      "payable": false,
      "stateMutability": "nonpayable",
      "type": "function"
    },
    {
      "inputs": [],
      "payable": true,
      "stateMutability": "payable",
      "type": "constructor"
    },
    {
      "anonymous": false,
      "inputs": [
        {
          "indexed": true,
          "name": "previousOwner",
          "type": "address"
        },
        {
          "indexed": true,
          "name": "newOwner",
          "type": "address"
        }
      ],
      "name": "OwnershipTransferred",
      "type": "event"
    },
    {
      "constant": false,
      "inputs": [],
      "name": "destroy",
      "outputs": [],
      "payable": false,
      "stateMutability": "nonpayable",
      "type": "function"
    },
    {
      "constant": false,
      "inputs": [
        {
          "name": "_recipient",
          "type": "address"
        }
      ],
      "name": "destroyAndSend",
      "outputs": [],
      "payable": false,
      "stateMutability": "nonpayable",
      "type": "function"
    },
    {
      "constant": true,
      "inputs": [],
      "name": "getOwner",
      "outputs": [
        {
          "name": "",
          "type": "address"
        }
      ],
      "payable": false,
      "stateMutability": "view",
      "type": "function"
    }
  ],
  "bytecode": "0x6080604052336000806101000a81548173ffffffffffffffffffffffffffffffffffffffff021916908373ffffffffffffffffffffffffffffffffffffffff1602179055506000809054906101000a900473ffffffffffffffffffffffffffffffffffffffff1673ffffffffffffffffffffffffffffffffffffffff16600073ffffffffffffffffffffffffffffffffffffffff167f8be0079c531659141344cd1fd0a4f28419497f9722a3daafe3b4186f6b6457e060405160405180910390a3610531806100cf6000396000f300608060405260043610610083576000357c0100000000000000000000000000000000000000000000000000000000900463ffffffff168063715018a61461008857806383197ef01461009f578063893d20e8146100b65780638da5cb5b1461010d5780638f32d59b14610164578063f2fde38b14610193578063f5074f41146101d6575b600080fd5b34801561009457600080fd5b5061009d610219565b005b3480156100ab57600080fd5b506100b46102eb565b005b3480156100c257600080fd5b506100cb61031e565b604051808273ffffffffffffffffffffffffffffffffffffffff1673ffffffffffffffffffffffffffffffffffffffff16815260200191505060405180910390f35b34801561011957600080fd5b50610122610340565b604051808273ffffffffffffffffffffffffffffffffffffffff1673ffffffffffffffffffffffffffffffffffffffff16815260200191505060405180910390f35b34801561017057600080fd5b50610179610369565b604051808215151515815260200191505060405180910390f35b34801561019f57600080fd5b506101d4600480360381019080803573ffffffffffffffffffffffffffffffffffffffff1690602001909291905050506103c0565b005b3480156101e257600080fd5b50610217600480360381019080803573ffffffffffffffffffffffffffffffffffffffff1690602001909291905050506103df565b005b610221610369565b151561022c57600080fd5b600073ffffffffffffffffffffffffffffffffffffffff166000809054906101000a900473ffffffffffffffffffffffffffffffffffffffff1673ffffffffffffffffffffffffffffffffffffffff167f8be0079c531659141344cd1fd0a4f28419497f9722a3daafe3b4186f6b6457e060405160405180910390a360008060006101000a81548173ffffffffffffffffffffffffffffffffffffffff021916908373ffffffffffffffffffffffffffffffffffffffff160217905550565b6102f3610369565b15156102fe57600080fd5b610306610340565b73ffffffffffffffffffffffffffffffffffffffff16ff5b6000610328610369565b151561033357600080fd5b61033b610340565b905090565b60008060009054906101000a900473ffffffffffffffffffffffffffffffffffffffff16905090565b60008060009054906101000a900473ffffffffffffffffffffffffffffffffffffffff1673ffffffffffffffffffffffffffffffffffffffff163373ffffffffffffffffffffffffffffffffffffffff1614905090565b6103c8610369565b15156103d357600080fd5b6103dc8161040b565b50565b6103e7610369565b15156103f257600080fd5b8073ffffffffffffffffffffffffffffffffffffffff16ff5b600073ffffffffffffffffffffffffffffffffffffffff168173ffffffffffffffffffffffffffffffffffffffff161415151561044757600080fd5b8073ffffffffffffffffffffffffffffffffffffffff166000809054906101000a900473ffffffffffffffffffffffffffffffffffffffff1673ffffffffffffffffffffffffffffffffffffffff167f8be0079c531659141344cd1fd0a4f28419497f9722a3daafe3b4186f6b6457e060405160405180910390a3806000806101000a81548173ffffffffffffffffffffffffffffffffffffffff021916908373ffffffffffffffffffffffffffffffffffffffff160217905550505600a165627a7a72305820a15e39ed1dccbec591bf75218a1f30e9fe7c51ca6b68fd4fe772aa51b8e55ac20029",
  "source": "pragma solidity ^0.4.24;\r\n\r\nimport \"/openzeppelin-solidity/contracts/ownership/Ownable.sol\";\r\n\r\n/**\r\n  * @title Destructible\r\n  *\r\n  * @dev Base contract that can be destroyed by owner. All funds in contract will be sent to the owner.\r\n  * @dev Credit: https://github.com/OpenZeppelin/openzeppelin-solidity/blob/v1.12.0/contracts/lifecycle/Destructible.sol\r\n  *\r\n  * Se hace un contrato propio, dado que la rama master de la última versión de fuentes de OpneZepplin, no tiene el contrato.\r\n  * Por otro lado, se tuvo que cambiar en la función \"destroy\", el uso de Owner, para enviarlo como una función y no la variable.\r\n  */\r\ncontract Destructible is Ownable {\r\n\r\n\r\n  /**\r\n    * @dev Constructor\r\n    */\r\n  constructor() public payable { }\r\n\r\n  /**\r\n    * @dev Transfers the current balance to the owner and terminates the contract.\r\n    */\r\n  function destroy() public onlyOwner {\r\n    selfdestruct(owner());\r\n  }\r\n\r\n  /**\r\n    * @dev Transfers the current balance to _recipients and terminates the contract.\r\n    * @param _recipient Address where wants to tranfer\r\n    */\r\n  function destroyAndSend(address _recipient) public onlyOwner {\r\n    selfdestruct(_recipient);\r\n  }\r\n\r\n  /**\r\n    * @dev Get Owner\r\n    */\r\n  function getOwner() public onlyOwner view returns (address) {\r\n    return owner();\r\n  }\r\n}",
  "sourcePath": "D:\\desarrollo\\sources\\uah\\uah_bitbucket\\pec3\\contracts\\Destructible.sol",
  "compiler": {
    "name": "solc",
    "version": "0.4.24+commit.e67f0147.Emscripten.clang"
  },
  "schemaVersion": "2.0.1",
  "updatedAt": "2018-12-09T02:37:50.406Z"
}