{
  "contractName": "Election",
  "abi": [
    {
      "constant": true,
      "inputs": [
        {
          "name": "",
          "type": "address"
        }
      ],
      "name": "_statusVotador",
      "outputs": [
        {
          "name": "",
          "type": "bool"
        }
      ],
      "payable": false,
      "stateMutability": "view",
      "type": "function"
    },
    {
      "constant": false,
      "inputs": [],
      "name": "unpause",
      "outputs": [],
      "payable": false,
      "stateMutability": "nonpayable",
      "type": "function"
    },
    {
      "constant": true,
      "inputs": [
        {
          "name": "account",
          "type": "address"
        }
      ],
      "name": "isPauser",
      "outputs": [
        {
          "name": "",
          "type": "bool"
        }
      ],
      "payable": false,
      "stateMutability": "view",
      "type": "function"
    },
    {
      "constant": true,
      "inputs": [
        {
          "name": "",
          "type": "bytes32"
        }
      ],
      "name": "_candidatosValidos",
      "outputs": [
        {
          "name": "",
          "type": "bool"
        }
      ],
      "payable": false,
      "stateMutability": "view",
      "type": "function"
    },
    {
      "constant": true,
      "inputs": [],
      "name": "paused",
      "outputs": [
        {
          "name": "",
          "type": "bool"
        }
      ],
      "payable": false,
      "stateMutability": "view",
      "type": "function"
    },
    {
      "constant": true,
      "inputs": [
        {
          "name": "",
          "type": "bytes32"
        }
      ],
      "name": "_votosRecibidos",
      "outputs": [
        {
          "name": "",
          "type": "uint8"
        }
      ],
      "payable": false,
      "stateMutability": "view",
      "type": "function"
    },
    {
      "constant": true,
      "inputs": [
        {
          "name": "",
          "type": "bytes32"
        }
      ],
      "name": "_hashCandidatos",
      "outputs": [
        {
          "name": "",
          "type": "bytes32"
        }
      ],
      "payable": false,
      "stateMutability": "view",
      "type": "function"
    },
    {
      "constant": true,
      "inputs": [],
      "name": "contadorCandidatos",
      "outputs": [
        {
          "name": "",
          "type": "uint256"
        }
      ],
      "payable": false,
      "stateMutability": "view",
      "type": "function"
    },
    {
      "constant": false,
      "inputs": [],
      "name": "renouncePauser",
      "outputs": [],
      "payable": false,
      "stateMutability": "nonpayable",
      "type": "function"
    },
    {
      "constant": false,
      "inputs": [],
      "name": "renounceOwnership",
      "outputs": [],
      "payable": false,
      "stateMutability": "nonpayable",
      "type": "function"
    },
    {
      "constant": false,
      "inputs": [
        {
          "name": "account",
          "type": "address"
        }
      ],
      "name": "addPauser",
      "outputs": [],
      "payable": false,
      "stateMutability": "nonpayable",
      "type": "function"
    },
    {
      "constant": false,
      "inputs": [],
      "name": "destroy",
      "outputs": [],
      "payable": false,
      "stateMutability": "nonpayable",
      "type": "function"
    },
    {
      "constant": false,
      "inputs": [],
      "name": "pause",
      "outputs": [],
      "payable": false,
      "stateMutability": "nonpayable",
      "type": "function"
    },
    {
      "constant": true,
      "inputs": [],
      "name": "getOwner",
      "outputs": [
        {
          "name": "",
          "type": "address"
        }
      ],
      "payable": false,
      "stateMutability": "view",
      "type": "function"
    },
    {
      "constant": true,
      "inputs": [],
      "name": "owner",
      "outputs": [
        {
          "name": "",
          "type": "address"
        }
      ],
      "payable": false,
      "stateMutability": "view",
      "type": "function"
    },
    {
      "constant": true,
      "inputs": [],
      "name": "isOwner",
      "outputs": [
        {
          "name": "",
          "type": "bool"
        }
      ],
      "payable": false,
      "stateMutability": "view",
      "type": "function"
    },
    {
      "constant": false,
      "inputs": [
        {
          "name": "newOwner",
          "type": "address"
        }
      ],
      "name": "transferOwnership",
      "outputs": [],
      "payable": false,
      "stateMutability": "nonpayable",
      "type": "function"
    },
    {
      "constant": false,
      "inputs": [
        {
          "name": "_recipient",
          "type": "address"
        }
      ],
      "name": "destroyAndSend",
      "outputs": [],
      "payable": false,
      "stateMutability": "nonpayable",
      "type": "function"
    },
    {
      "inputs": [
        {
          "name": "nombreCandidatos",
          "type": "bytes32[]"
        },
        {
          "name": "hashCandidatos",
          "type": "bytes32[]"
        }
      ],
      "payable": false,
      "stateMutability": "nonpayable",
      "type": "constructor"
    },
    {
      "anonymous": false,
      "inputs": [
        {
          "indexed": true,
          "name": "previousOwner",
          "type": "address"
        },
        {
          "indexed": true,
          "name": "newOwner",
          "type": "address"
        }
      ],
      "name": "OwnershipTransferred",
      "type": "event"
    },
    {
      "anonymous": false,
      "inputs": [
        {
          "indexed": false,
          "name": "account",
          "type": "address"
        }
      ],
      "name": "Paused",
      "type": "event"
    },
    {
      "anonymous": false,
      "inputs": [
        {
          "indexed": false,
          "name": "account",
          "type": "address"
        }
      ],
      "name": "Unpaused",
      "type": "event"
    },
    {
      "anonymous": false,
      "inputs": [
        {
          "indexed": true,
          "name": "account",
          "type": "address"
        }
      ],
      "name": "PauserAdded",
      "type": "event"
    },
    {
      "anonymous": false,
      "inputs": [
        {
          "indexed": true,
          "name": "account",
          "type": "address"
        }
      ],
      "name": "PauserRemoved",
      "type": "event"
    },
    {
      "constant": false,
      "inputs": [],
      "name": "toggleContractActive",
      "outputs": [],
      "payable": false,
      "stateMutability": "nonpayable",
      "type": "function"
    },
    {
      "constant": true,
      "inputs": [
        {
          "name": "candidato",
          "type": "bytes32"
        }
      ],
      "name": "getVotesByCandidate",
      "outputs": [
        {
          "name": "",
          "type": "uint8"
        }
      ],
      "payable": false,
      "stateMutability": "view",
      "type": "function"
    },
    {
      "constant": false,
      "inputs": [
        {
          "name": "candidato",
          "type": "bytes32"
        },
        {
          "name": "direccionVotador",
          "type": "address"
        },
        {
          "name": "mensajeFirmado",
          "type": "bytes"
        }
      ],
      "name": "vote",
      "outputs": [],
      "payable": false,
      "stateMutability": "nonpayable",
      "type": "function"
    },
    {
      "constant": true,
      "inputs": [
        {
          "name": "interfaceID",
          "type": "bytes4"
        }
      ],
      "name": "supportsInterface",
      "outputs": [
        {
          "name": "",
          "type": "bool"
        }
      ],
      "payable": false,
      "stateMutability": "view",
      "type": "function"
    }
  ],
  "bytecode": "0x60806040526000600860006101000a81548160ff0219169083151502179055503480156200002c57600080fd5b5060405162001a4238038062001a4283398101806040528101908080518201929190602001805182019291905050506000620000773362000263640100000000026401000000009004565b6000600160006101000a81548160ff021916908315150217905550336001806101000a81548173ffffffffffffffffffffffffffffffffffffffff021916908373ffffffffffffffffffffffffffffffffffffffff1602179055506001809054906101000a900473ffffffffffffffffffffffffffffffffffffffff1673ffffffffffffffffffffffffffffffffffffffff16600073ffffffffffffffffffffffffffffffffffffffff167f8be0079c531659141344cd1fd0a4f28419497f9722a3daafe3b4186f6b6457e060405160405180910390a36200018b6301ffc9a77c010000000000000000000000000000000000000000000000000000000002620002cd640100000000026401000000009004565b600090505b82518110156200025a576007600081548092919060010191905055506001600660008584815181101515620001c157fe5b906020019060200201516000191660001916815260200190815260200160002060006101000a81548160ff02191690831515021790555081818151811015156200020757fe5b906020019060200201516004600085848151811015156200022457fe5b90602001906020020151600019166000191681526020019081526020016000208160001916905550808060010191505062000190565b505050620004e4565b620002878160006200038c6401000000000262001472179091906401000000009004565b8073ffffffffffffffffffffffffffffffffffffffff167f6719d08c1888103bea251a4ed56406bd0c3e69723c8a1686e017e7bbe159b6f860405160405180910390a250565b63ffffffff7c010000000000000000000000000000000000000000000000000000000002817bffffffffffffffffffffffffffffffffffffffffffffffffffffffff1916141515156200031f57600080fd5b600160026000837bffffffffffffffffffffffffffffffffffffffffffffffffffffffff19167bffffffffffffffffffffffffffffffffffffffffffffffffffffffff1916815260200190815260200160002060006101000a81548160ff02191690831515021790555050565b600073ffffffffffffffffffffffffffffffffffffffff168173ffffffffffffffffffffffffffffffffffffffff1614151515620003c957600080fd5b620003e482826200044f640100000000026401000000009004565b151515620003f157600080fd5b60018260000160008373ffffffffffffffffffffffffffffffffffffffff1673ffffffffffffffffffffffffffffffffffffffff16815260200190815260200160002060006101000a81548160ff0219169083151502179055505050565b60008073ffffffffffffffffffffffffffffffffffffffff168273ffffffffffffffffffffffffffffffffffffffff16141515156200048d57600080fd5b8260000160008373ffffffffffffffffffffffffffffffffffffffff1673ffffffffffffffffffffffffffffffffffffffff16815260200190815260200160002060009054906101000a900460ff16905092915050565b61154e80620004f46000396000f300608060405260043610610128576000357c0100000000000000000000000000000000000000000000000000000000900463ffffffff16806301ffc9a71461012d5780631385d24c1461019157806314173589146101a857806339bb23cc146102035780633f4ba83a1461029a57806346fbf68e146102b1578063595021b91461030c5780635c975abb1461035557806362f058771461038457806366c8cf6b146103cf5780636a1b23061461041c5780636ef8d66d14610447578063715018a61461045e57806382dc1ec41461047557806383197ef0146104b85780638456cb59146104cf578063893d20e8146104e65780638da5cb5b1461053d5780638f32d59b14610594578063c645bf67146105c3578063f2fde38b1461060e578063f5074f4114610651575b600080fd5b34801561013957600080fd5b5061017760048036038101908080357bffffffffffffffffffffffffffffffffffffffffffffffffffffffff19169060200190929190505050610694565b604051808215151515815260200191505060405180910390f35b34801561019d57600080fd5b506101a66109f9565b005b3480156101b457600080fd5b506101e9600480360381019080803573ffffffffffffffffffffffffffffffffffffffff169060200190929190505050610a38565b604051808215151515815260200191505060405180910390f35b34801561020f57600080fd5b506102986004803603810190808035600019169060200190929190803573ffffffffffffffffffffffffffffffffffffffff169060200190929190803590602001908201803590602001908080601f0160208091040260200160405190810160405280939291908181526020018383808284378201915050505050509192919290505050610a58565b005b3480156102a657600080fd5b506102af610c16565b005b3480156102bd57600080fd5b506102f2600480360381019080803573ffffffffffffffffffffffffffffffffffffffff169060200190929190505050610cc5565b604051808215151515815260200191505060405180910390f35b34801561031857600080fd5b5061033b6004803603810190808035600019169060200190929190505050610ce2565b604051808215151515815260200191505060405180910390f35b34801561036157600080fd5b5061036a610d02565b604051808215151515815260200191505060405180910390f35b34801561039057600080fd5b506103b36004803603810190808035600019169060200190929190505050610d19565b604051808260ff1660ff16815260200191505060405180910390f35b3480156103db57600080fd5b506103fe6004803603810190808035600019169060200190929190505050610d39565b60405180826000191660001916815260200191505060405180910390f35b34801561042857600080fd5b50610431610d51565b6040518082815260200191505060405180910390f35b34801561045357600080fd5b5061045c610d57565b005b34801561046a57600080fd5b50610473610d62565b005b34801561048157600080fd5b506104b6600480360381019080803573ffffffffffffffffffffffffffffffffffffffff169060200190929190505050610e34565b005b3480156104c457600080fd5b506104cd610e54565b005b3480156104db57600080fd5b506104e4610e87565b005b3480156104f257600080fd5b506104fb610f36565b604051808273ffffffffffffffffffffffffffffffffffffffff1673ffffffffffffffffffffffffffffffffffffffff16815260200191505060405180910390f35b34801561054957600080fd5b50610552610f58565b604051808273ffffffffffffffffffffffffffffffffffffffff1673ffffffffffffffffffffffffffffffffffffffff16815260200191505060405180910390f35b3480156105a057600080fd5b506105a9610f81565b604051808215151515815260200191505060405180910390f35b3480156105cf57600080fd5b506105f26004803603810190808035600019169060200190929190505050610fd8565b604051808260ff1660ff16815260200191505060405180910390f35b34801561061a57600080fd5b5061064f600480360381019080803573ffffffffffffffffffffffffffffffffffffffff16906020019092919050505061103e565b005b34801561065d57600080fd5b50610692600480360381019080803573ffffffffffffffffffffffffffffffffffffffff16906020019092919050505061105d565b005b60006301ffc9a77c0100000000000000000000000000000000000000000000000000000000027bffffffffffffffffffffffffffffffffffffffffffffffffffffffff1916827bffffffffffffffffffffffffffffffffffffffffffffffffffffffff19161480610853575060405180807f7472616e736665724f776e657273686970286164647265737329000000000000815250601a019050604051809103902060405180807f646565644f664f776e65724279496e6465782861646472657373290000000000815250601b019050604051809103902060405180807f72656e6f756e63654f776e6572736869702829000000000000000000000000008152506013019050604051809103902060405180807f69734f776e6572282900000000000000000000000000000000000000000000008152506009019050604051809103902060405180807f6f776e657228290000000000000000000000000000000000000000000000000081525060070190506040518091039020181818187bffffffffffffffffffffffffffffffffffffffffffffffffffffffff1916827bffffffffffffffffffffffffffffffffffffffffffffffffffffffff1916145b80610907575060405180807f756e7061757365282900000000000000000000000000000000000000000000008152506009019050604051809103902060405180807f706175736528290000000000000000000000000000000000000000000000000081525060070190506040518091039020187bffffffffffffffffffffffffffffffffffffffffffffffffffffffff1916827bffffffffffffffffffffffffffffffffffffffffffffffffffffffff1916145b806109f2575060405180807f6765744f776e6572282900000000000000000000000000000000000000000000815250600a019050604051809103902060405180807f64657374726f79416e6453656e642861646472657373290000000000000000008152506017019050604051809103902060405180807f64657374726f79282900000000000000000000000000000000000000000000008152506009019050604051809103902018187bffffffffffffffffffffffffffffffffffffffffffffffffffffffff1916827bffffffffffffffffffffffffffffffffffffffffffffffffffffffff1916145b9050919050565b610a01610f81565b1515610a0c57600080fd5b600860009054906101000a900460ff1615600860006101000a81548160ff021916908315150217905550565b60056020528060005260406000206000915054906101000a900460ff1681565b600080600860009054906101000a900460ff161515610c0f57600560008573ffffffffffffffffffffffffffffffffffffffff1673ffffffffffffffffffffffffffffffffffffffff16815260200190815260200160002060009054906101000a900460ff16151515610aca57600080fd5b600460008660001916600019168152602001908152602001600020549150610aff83836000191661108990919063ffffffff16565b90508373ffffffffffffffffffffffffffffffffffffffff168173ffffffffffffffffffffffffffffffffffffffff16141515610b3b57600080fd5b60066000866000191660001916815260200190815260200160002060009054906101000a900460ff161515610b6f57600080fd5b600160036000876000191660001916815260200190815260200160002060008282829054906101000a900460ff160192506101000a81548160ff021916908360ff1602179055506001600560008673ffffffffffffffffffffffffffffffffffffffff1673ffffffffffffffffffffffffffffffffffffffff16815260200190815260200160002060006101000a81548160ff0219169083151502179055505b5050505050565b610c1f33610cc5565b1515610c2a57600080fd5b600160009054906101000a900460ff161515610c4557600080fd5b6000600160006101000a81548160ff0219169083151502179055507f5db9ee0a495bf2e6ff9c91a7834c1ba4fdd244a5e8aa4e537bd38aeae4b073aa33604051808273ffffffffffffffffffffffffffffffffffffffff1673ffffffffffffffffffffffffffffffffffffffff16815260200191505060405180910390a1565b6000610cdb82600061118190919063ffffffff16565b9050919050565b60066020528060005260406000206000915054906101000a900460ff1681565b6000600160009054906101000a900460ff16905090565b60036020528060005260406000206000915054906101000a900460ff1681565b60046020528060005260406000206000915090505481565b60075481565b610d6033611215565b565b610d6a610f81565b1515610d7557600080fd5b600073ffffffffffffffffffffffffffffffffffffffff166001809054906101000a900473ffffffffffffffffffffffffffffffffffffffff1673ffffffffffffffffffffffffffffffffffffffff167f8be0079c531659141344cd1fd0a4f28419497f9722a3daafe3b4186f6b6457e060405160405180910390a360006001806101000a81548173ffffffffffffffffffffffffffffffffffffffff021916908373ffffffffffffffffffffffffffffffffffffffff160217905550565b610e3d33610cc5565b1515610e4857600080fd5b610e518161126f565b50565b610e5c610f81565b1515610e6757600080fd5b610e6f610f58565b73ffffffffffffffffffffffffffffffffffffffff16ff5b610e9033610cc5565b1515610e9b57600080fd5b600160009054906101000a900460ff16151515610eb757600080fd5b60018060006101000a81548160ff0219169083151502179055507f62e78cea01bee320cd4e420270b5ea74000d11b0c9f74754ebdbfc544b05a25833604051808273ffffffffffffffffffffffffffffffffffffffff1673ffffffffffffffffffffffffffffffffffffffff16815260200191505060405180910390a1565b6000610f40610f81565b1515610f4b57600080fd5b610f53610f58565b905090565b60006001809054906101000a900473ffffffffffffffffffffffffffffffffffffffff16905090565b60006001809054906101000a900473ffffffffffffffffffffffffffffffffffffffff1673ffffffffffffffffffffffffffffffffffffffff163373ffffffffffffffffffffffffffffffffffffffff1614905090565b600060066000836000191660001916815260200190815260200160002060009054906101000a900460ff16151561100e57600080fd5b60036000836000191660001916815260200190815260200160002060009054906101000a900460ff169050919050565b611046610f81565b151561105157600080fd5b61105a816112c9565b50565b611065610f81565b151561107057600080fd5b8073ffffffffffffffffffffffffffffffffffffffff16ff5b600080600080604185511415156110a35760009350611178565b6020850151925060408501519150606085015160001a9050601b8160ff1610156110ce57601b810190505b601b8160ff16141580156110e65750601c8160ff1614155b156110f45760009350611178565b600186828585604051600081526020016040526040518085600019166000191681526020018460ff1660ff1681526020018360001916600019168152602001826000191660001916815260200194505050505060206040516020810390808403906000865af115801561116b573d6000803e3d6000fd5b5050506020604051035193505b50505092915050565b60008073ffffffffffffffffffffffffffffffffffffffff168273ffffffffffffffffffffffffffffffffffffffff16141515156111be57600080fd5b8260000160008373ffffffffffffffffffffffffffffffffffffffff1673ffffffffffffffffffffffffffffffffffffffff16815260200190815260200160002060009054906101000a900460ff16905092915050565b6112298160006113c390919063ffffffff16565b8073ffffffffffffffffffffffffffffffffffffffff167fcd265ebaf09df2871cc7bd4133404a235ba12eff2041bb89d9c714a2621c7c7e60405160405180910390a250565b61128381600061147290919063ffffffff16565b8073ffffffffffffffffffffffffffffffffffffffff167f6719d08c1888103bea251a4ed56406bd0c3e69723c8a1686e017e7bbe159b6f860405160405180910390a250565b600073ffffffffffffffffffffffffffffffffffffffff168173ffffffffffffffffffffffffffffffffffffffff161415151561130557600080fd5b8073ffffffffffffffffffffffffffffffffffffffff166001809054906101000a900473ffffffffffffffffffffffffffffffffffffffff1673ffffffffffffffffffffffffffffffffffffffff167f8be0079c531659141344cd1fd0a4f28419497f9722a3daafe3b4186f6b6457e060405160405180910390a3806001806101000a81548173ffffffffffffffffffffffffffffffffffffffff021916908373ffffffffffffffffffffffffffffffffffffffff16021790555050565b600073ffffffffffffffffffffffffffffffffffffffff168173ffffffffffffffffffffffffffffffffffffffff16141515156113ff57600080fd5b6114098282611181565b151561141457600080fd5b60008260000160008373ffffffffffffffffffffffffffffffffffffffff1673ffffffffffffffffffffffffffffffffffffffff16815260200190815260200160002060006101000a81548160ff0219169083151502179055505050565b600073ffffffffffffffffffffffffffffffffffffffff168173ffffffffffffffffffffffffffffffffffffffff16141515156114ae57600080fd5b6114b88282611181565b1515156114c457600080fd5b60018260000160008373ffffffffffffffffffffffffffffffffffffffff1673ffffffffffffffffffffffffffffffffffffffff16815260200190815260200160002060006101000a81548160ff02191690831515021790555050505600a165627a7a723058202739449a1d8493da51c6950ee88c992a53ea889da3dbb23564e458d9d32d73a10029",
  "source": "pragma solidity ^0.4.24;\r\n\r\nimport \"./Destructible.sol\";\r\nimport \"/openzeppelin-solidity/contracts/cryptography/ECDSA.sol\";\r\nimport \"/openzeppelin-solidity/contracts/lifecycle/Pausable.sol\";\r\nimport \"/openzeppelin-solidity/contracts/introspection/ERC165.sol\";\r\nimport \"/openzeppelin-solidity/contracts/math/SafeMath.sol\";\r\n\r\n\r\n/**\r\n  * @title Contrato \"Election\"\r\n\t*\r\n  * @dev Se implementa Destructible de OpenZeppeling: para permitir destruir el contrato en caso de error.\r\n\t*\r\n\t* @dev Se implementa Ownable de OpenZeppeling(a través de Destructible): que permite establecer una única\r\n  * @dev dirección con privilegios de administración que pueda llamar a \"owner-specific functions\".\r\n  * @dev (provee el modificar \"onlyOwner\" que garantiza que las funciones puedan solo ser llamadas por\r\n  * @dev el owner del contrato). A su vez, se permite transferir el contrato a otro dueño.\r\n\t*\r\n\t* @dev Se implementa Pausable: para permitir pausar el contrato en caso que haga falta.\r\n\t*\r\n  * @dev Se implementa ERC165: para permitir hacer una introspección de las interfaces usadas\r\n  * @dev por el contrato.\r\n\t*\r\n\t* @dev Se hace uso de safeMath para uint8, para evitar un overFlow de la variable _votosRecibidos\r\n\t* \r\n\t* @dev crédito y referencia de implementación circuit-breaker:\r\n\t* see https://github.com/ethereum/wiki/wiki/Safety#circuit-breakers-pause-contract-functionality\r\n  */\r\ncontract Election is Pausable, Destructible, ERC165 {\r\n  using ECDSA for bytes32;\r\n\tusing SafeMath for uint8;\r\n\r\n  mapping(bytes32 => uint8) public _votosRecibidos;\r\n  mapping(bytes32 => bytes32) public _hashCandidatos;\r\n  mapping(address => bool) public _statusVotador;\r\n  mapping(bytes32 => bool) public _candidatosValidos;\r\n\r\n\t// Constante para validación con ERC165 de la propia interfaz ERC165\r\n\t// 0x01ffc9a7 === bytes4(keccak256(\"supportsInterface(bytes4)\"));\r\n\tbytes4 private constant _InterfaceId_ERC165 = 0x01ffc9a7;\r\n\r\n\t// Constante para validación con ERC165 de la interfaz Ownable\r\n\tbytes4 private constant _InterfaceId_ownable = bytes4(keccak256(\"owner()\"))^bytes4(keccak256(\"isOwner()\"))^bytes4(keccak256(\"renounceOwnership()\"))^bytes4(keccak256(\"deedOfOwnerByIndex(address)\"))^bytes4(keccak256(\"transferOwnership(address)\"));\r\n\r\n\t// Constante para validación con ERC165 de la interfaz Pausable\r\n\tbytes4 private constant _InterfaceId_pausable = bytes4(keccak256(\"pause()\"))^bytes4(keccak256(\"unpause()\"));\r\n\r\n\t// Constante para validación con ERC165 de la interfaz Destructible\r\n\tbytes4 private constant _InterfaceId_destructible = bytes4(keccak256(\"destroy()\"))^bytes4(keccak256(\"destroyAndSend(address)\"))^bytes4(keccak256(\"getOwner()\"));\r\n\r\n\t// Almacena el contador de candidatos\r\n\tuint public contadorCandidatos;\r\n\r\n\t// Usado para detener el contrato (parte de implementación de circuit-breakers)\r\n\tbool private stopped = false;\r\n\r\n  /**\r\n\t\t* @dev Constructor\r\n\t\t* @param nombreCandidatos Nombre de los candidatos\r\n\t\t* @param hashCandidatos Hash de los candidatos\r\n\t\t*/\r\n\tconstructor (bytes32[] nombreCandidatos, bytes32[] hashCandidatos) public {\r\n    for (uint i = 0; i < nombreCandidatos.length; i++) {\r\n\t\t\tcontadorCandidatos ++;\r\n      _candidatosValidos[nombreCandidatos[i]] = true;\r\n      _hashCandidatos[nombreCandidatos[i]] = hashCandidatos[i];\r\n    }\r\n  }\r\n\r\n\t/**\r\n\t\t* @dev Cambiar un flag (stopped) en caso de algun error que requiera la \r\n\t\t* @dev implementación de detención de código (circuit-breaker)\r\n\t\t* @dev Hace uso del modificador 'onlyOwner' de la interfaz @Ownable\r\n\t\t*/\r\n\tfunction toggleContractActive() onlyOwner public\r\n\t{\r\n\t\tstopped = !stopped;\r\n\t}\r\n\r\n\t/**\r\n\t\t* @dev Implementación de modificador para detener la ejecución de una función\r\n\t\t* @dev en caso de emergencia\r\n\t  */\r\n\tmodifier stopInEmergency { if (!stopped) _; }\r\n\r\n\t/**\r\n\t\t* @dev Implementación de modificador para ejecución de una función solo en caso\r\n\t\t* @dev de emergencia\r\n\t\t* @dev por el momento, modificador no utiliza den alguna función\r\n\t\t*/\r\n\tmodifier onlyInEmergency { if (stopped) _; }\r\n\r\n\r\n  /**\r\n\t\t* @dev Obtención de la cantidad total de votos para un candidato\r\n\t\t* @param candidato Candidato para el cual obtener los votos\r\n\t\t*/\r\n  function getVotesByCandidate(bytes32 candidato) view public returns (uint8) {\r\n    require(_candidatosValidos[candidato]);\r\n    return _votosRecibidos[candidato];\r\n  }\r\n\r\n  /**\r\n\t\t* @dev Votación de un candidato\r\n\t\t* @dev La función detendrá su ejecución, en caso de una emergencia, gracias al modificador\r\n\t\t* @dev 'stopInEmergency', que es la implementación del patrón circuit-breaker\r\n\t\t* @param candidato Candidato por el cual votar\r\n\t\t* @param direccionVotador  Dirección del que realizará la votación\r\n\t\t* @param mensajeFirmado Mensaje firmado por el votador\r\n\t\t*/\r\n  function vote(bytes32 candidato, address direccionVotador, bytes mensajeFirmado) stopInEmergency public {\r\n\r\n\t\t// Valida que el votador no haya votado!\r\n\t\trequire(!_statusVotador[direccionVotador]);\r\n\r\n\t\t// Obtiene el hash guardado del candidato\r\n    bytes32 voteHash = _hashCandidatos[candidato];\r\n\r\n\t\t// Recupera la cuenta del mensaje firmado\r\n\t  address recoveredAddress = voteHash.recover(mensajeFirmado);\r\n\r\n\t\t// La dirección del votador tiene que ser la misma que se usó para firmar el mensaje\r\n    require(recoveredAddress == direccionVotador);\r\n\r\n\t\t// El caniddato tiene que ser válido\r\n\t\trequire(_candidatosValidos[candidato]);\r\n\r\n\t\t// Aumenta la cantidad de votos para el candidato\r\n    _votosRecibidos[candidato] += 1;\r\n\r\n\t\t// Marca al votador cómo que ya votó\r\n    _statusVotador[direccionVotador] = true;\r\n\t}\r\n\r\n\t/**\r\n\t\t* @notice Introspection interface as per ERC-165 (https://github.com/ethereum/EIPs/issues/165).\r\n\t\t* @dev Returns true for any standardized interfaces implemented by this contract.\r\n\t\t* @param interfaceID bytes4 the interface to check for\r\n\t\t* @return true for any standardized interfaces implemented by this contract.\r\n\t\t*/\r\n\tfunction supportsInterface(bytes4 interfaceID) external view returns (bool) {\r\n\t\treturn ((interfaceID == _InterfaceId_ERC165) || (interfaceID == _InterfaceId_ownable) || (interfaceID == _InterfaceId_pausable) || (interfaceID == _InterfaceId_destructible));\r\n\t}\r\n\r\n}\r\n\r\n",
  "sourcePath": "D:\\desarrollo\\sources\\uah\\uah_bitbucket\\pec3\\contracts\\Election.sol",
  "compiler": {
    "name": "solc",
    "version": "0.4.24+commit.e67f0147.Emscripten.clang"
  },
  "schemaVersion": "2.0.1",
  "updatedAt": "2018-12-09T02:37:50.412Z"
}